:020000041000EA
:1010000020050020191000100000000099100010A9
:1010100000040100000000801149124A124B00F048
:1010200018F8124880471249124A134B00F011F881
:101030001249134A134B00F00CF81349134A0020CD
:10104000521A02DD043A8850FCDC114880471148EE
:1010500080479B1A03DD043BC858D050FBDC704727
:10106000941800100C0000201C010020E910001052
:10107000A41900102005002070050020F4190010AC
:1010800070050020700500207005002080050020FC
:10109000F1170010B5160010FEE700000C4B0D4ACA
:1010A000196810B50904090E11601B680A4ADBB201
:1010B00013600A4C002907D00902C918084800F03B
:1010C00005FB4000206001E0064B236010BDC046D8
:1010D000000301407405002070050020FC3F002043
:1010E000000024F40048E80108B500F06DF900F0B4
:1010F00073F908BDF7B503250C1C2C40AC400194D6
:10110000F824019E8B08B4409B00C3181F69042675
:10111000A7431F614F00BD40446FAC4307250D40FE
:10112000AD00AE404467CC08A4000419276CB74357
:1011300027645678276CAE40351C3D4325640A4C25
:10114000A04204D101258D40046EAC43046614789E
:1011500065B2002D02DA52688A40426001991A692C
:101160008C4014431C61F7BD00020440C022034BB5
:101170005A625A6A5207FCD47047C04600000140C8
:1011800010B5041CFFF7F2FF054B186920431861E6
:101190001A685200FCD4C322024B5A6210BDC046EA
:1011A0000003014000000140F8B50D1C041CFFF7CE
:1011B000DDFF204B20491A681868120408401F49B7
:1011C000120E08432843186018684000FCD41C4DD8
:1011D000A600A2421AD89000A0420DD2002A00D147
:1011E0000132186892002840084316023043186004
:1011F00018684000FCD4EEE71A6824022A40114324
:10120000214319600CE018684000FCD4B242F3D9C5
:101210001868920828400843170238431860F2E71C
:101220001A685200FCD4C322064B5A62FFF736FFFD
:10123000F8BDC0460003014000FF0FC00000F03FB2
:10124000FF000FC00000014010B5041CFFF78EFF27
:10125000A2686168074811430368074A1340C32224
:101260000B430360054B5A6260782178FFF79CFFBF
:1012700010BDC04600030140FFFFF0FF0000014029
:1012800010B5032449008A408C40111C436FA343CE
:101290004367436F1943416710BD08B50120FFF74D
:1012A0006FFF08BD38B50D1C041CFFF7F6FF2B6956
:1012B0002360231C6A68A0331A60AA685A60A023BE
:1012C000EA689B00E250064A064B116C0B408021F5
:1012D00009020B4313640122034B1A6038BDC04658
:1012E00000400348FFEFFFFF00050140024A28339A
:1012F00011409B00195070471F07000080220430E6
:10130000C36F12061343C367064B1A6C120F032AEE
:1013100001D0C046F8E71A6C120F032A01D1C0466B
:10132000F9E7704700400348032900D90439FC302D
:10133000426C044B090413404364436C19434164F9
:101340007047C046FFFFF0FF4A68064B13438022F8
:101350009200835001228B681343812292008350B4
:101360007047C046008080007047000010B5037CC5
:10137000041C022B15D140682168FFF793FF8020E1
:10138000A16800020B6C0A6C1043074A1340034328
:101390000B64637C002B02D06068FFF7AFFF002373
:1013A0002374207C10BDC046FFF3FFFF10B5041C62
:1013B000017B021D0068FFF79DFE2068217B627B98
:1013C000FFF75EFF002010BD70470378002B01D1AE
:1013D000013303700020704730B585B001A8021CAE
:1013E000034B32CB32C2FFF72FFF05B030BDC046F2
:1013F00070180010F7B5037E041C022B7ED1C06864
:10140000FFF7B4FFE268019050680022A3681968F2
:10141000131CFFF76BFFE268A3685068196800228D
:101420000123FFF763FFE36861685868FFF78CFFEB
:10143000E36858682368DA681F1C1168A0229200CC
:1014400081500C37C02620CB76002A786D78920028
:10145000821891598C460121A9400D1C61462943EF
:101460009151BB42EED1617EFFF75EFF236919788F
:101470005D684BB2AD01002B1ADB0320C02708408A
:10148000C000813E86401E4A9B089B009B18BF00FF
:10149000DA59B243161CFF222A4082401643DE511D
:1014A0001F2319401E3B8B40191C154B196012E07D
:1014B0000F230B40083B134A9B089B009B180322F9
:1014C00011409140FC32161C2A408E408A40D86957
:1014D000B0431043D8616369002B00D09847A37EC6
:1014E000002B08D081228020E36892005968800098
:1014F0008B5803438B506B461B792376207EFEBDB1
:1015000000E100E000ED00E08122C368802059681E
:1015100092008B58800003438B50704708B50948F0
:10152000FFF753FF00280CD10748FFF763FF00289F
:1015300007D10648FFF73AFF002802D10448FFF719
:1015400035FF08BD78050020340500205018001034
:101550006018001000220123002803D00340D21895
:101560004008F8E79343181C70470000F0B5B7B087
:1015700016AB1C1C01AD002801D1186003E001224C
:1015800002401A604008043BAB42F4D135AB00295D
:1015900001D1196003E001220A401A604908043BA6
:1015A0009C42F4D101273D1C1D4B1E4A197B10683B
:1015B0008D40019580256D022E1C8D40127B291CCB
:1015C0009640974000221C6802AD5559012D03D169
:1015D000019D6560466001E0616047600432542A05
:1015E000F2D18020197B533A4002161C071C884018
:1015F0001C680C4B8E401D681B7B011C9F409A4051
:10160000002317A81858012802D166606F6001E016
:1016100061606A6004337C2BF3D137B0F0BDC04603
:101620005018001060180010F7B51C4D1C4F2B68A7
:10163000032B28D100233C882B60201CFFF78AFF56
:10164000184B6400E3180193012803D1FE235B03C8
:10165000E31801937C88201CFFF77CFF124B2405C4
:10166000E618012800D1661CBC88201CFFF772FF19
:10167000A401012800D020340198A119FFF776FFBA
:101680000A48FFF741FFC02209492B689200895898
:101690005A000133B9522B60F7BDC0466C050020DB
:1016A0007A05002001C01F0001000400340500205D
:1016B0000000034808B5FFF731FF002800D0FEE71F
:1016C0000148FFF721FFFEE7340500200022430810
:1016D0008B4274D303098B425FD3030A8B4244D3FA
:1016E000030B8B4228D3030C8B420DD3FF2209023C
:1016F00012BA030C8B4202D31212090265D0030BFB
:101700008B4219D300E0090AC30B8B4201D3CB03F0
:10171000C01A5241830B8B4201D38B03C01A524132
:10172000430B8B4201D34B03C01A5241030B8B4234
:1017300001D30B03C01A5241C30A8B4201D3CB021F
:10174000C01A5241830A8B4201D38B02C01A524104
:10175000430A8B4201D34B02C01A5241030A8B4207
:1017600001D30B02C01A5241CDD2C3098B4201D31F
:10177000CB01C01A524183098B4201D38B01C01A9D
:10178000524143098B4201D34B01C01A5241030914
:101790008B4201D30B01C01A5241C3088B4201D3C3
:1017A000CB00C01A524183088B4201D38B00C01A70
:1017B000524143088B4201D34B00C01A5241411A97
:1017C00000D20146524110467047FFE701B50020A4
:1017D00000F00CF802BDC0460029F7D003B5FFF7B2
:1017E00075FF0EBC4243891A1847C0467047C04671
:1017F0000E4B70B500251E1C0D4CE41AA410A5421A
:1018000004D0AB00F35898470135F8E7FFF7ACFD7B
:10181000084B00251E1C084CE41AA410A54204D055
:10182000AB00F35898470135F8E770BD700500200C
:1018300070050020700500207005002000000000E9
:101840000000000000000000000000000000000098
:1018500000000440800000000000010003000000C0
:1018600000000440800000000000010004000000AF
:101870000001000000000100000000001000000056
:101880000300000005000000000000000000000050
:041890000000000054
:101894002C48874600000000000000000000000003
:1018A4000000000000000000000000000000000034
:1018B40025488746000000000000000023488746B2
:1018C4002348874623488746234887462348874634
:1018D4002348874623488746234887462348874624
:1018E4000000000000000000214887462148874688
:1018F400214887462148874621488746214887460C
:101904002148874621488746000000000000000067
:1019140000000000000000001D4887461D4887465F
:101924001D4887461D48874600000000000000004F
:1019340000000000000000000000000000000000A3
:101944000000000099100010991000109910001068
:10195400991000109910001099100010991000109F
:10196400991000109910001099100010991000108F
:10197400991000109910001099100010991000107F
:1019840099100010991000109910001029160010D9
:10199400991000109910001099100010991000105F
:1019A4003C180010000003480040034800000000F9
:1019B400020100005805002084180010901800103F
:1019C400200500207C180010000000000205000023
:1019D4000007010601050000500500205405002001
:1019E400520500206805002000000081030000006B
:0400000510001019BE
:00000001FF
